:040000000201BB320C
:01000B0032C2
:0100130032BA
:01001B0032B2
:0100230032AA
:01002B0032A2
:03003300020302C3
:01003B003292
:01004300328A
:01004B003282
:01005300327A
:01005B003272
:01006300326A
:03006B0002030588
:030073000208C2BE
:03007B000204DBA1
:030083000203CAAB
:03008B0002032C41
:0300930002037BEA
:03009B000204D884
:0300A3000208D17F
:0300AB000208D276
:0300B3000208D36D
:0300BB000208D662
:0300C3000208C16F
:0300CB000208C365
:0300D3000208C45C
:0300DB000208C652
:0300E3000204DD37
:0300EB0002094FB8
:0300F3000204D92B
:0300FB000204DA22
:030103000204DC17
:03010B000204DE0D
:030113000204DF04
:03011B00020932A4
:030123000208CF00
:03012B000208D4F3
:030133000208D7E8
:03013B000208D9DE
:030143000208D0DF
:03014B000208D5D2
:030153000208D8C7
:03015B000208DABD
:030163000209315D
:03016B000208C7C0
:030173000208C9B6
:03017B000208CBAC
:030183000208CDA2
:03018B000208C89F
:030193000208CA95
:03019B000208CC8B
:0301A3000208CE81
:0301AB000208C582
:0301B3000208C07F
:04021400C200C20161
:03022A000201B618
:0501B60012022D80FE85
:20022D00120405E500D2E890E668E04408F090E65CE04401F090E65CE04410F090E65CE06E
:20024D004420F090E65CE04408F0D2DDD2AF90E680E0FF20E11590E680E0440AF09005DCAF
:20026D001208DB90E680E0FF54F7F01204D710000280031204E010010280F090E682E0FF9A
:20028D0044C0F090E6817401F043870100000000000000E50A702090E682E0FF30E6089032
:2002AD00E682E0FF20E0D490E682E0FF30E70890E682E0FF20E1C490E682E0FF30E60890FF
:2002CD00E682E0FF20E01090E682E0FF30E79C90E682E0FF30E1949000051208DB90E68034
:2002ED00E04401F090000F1208DB90E680E0FF54FEF0020278C2DC32C0E0C082C083C007F9
:20030D00C0D075D000D200AF9174EF5FF59190E65D7401F0D0D0D007D083D082D0E032C0AB
:20032D0021C0E0C0F0C082C083C007C006C005C004C003C002C001C000C0D075D0007582D2
:20034D00001207B0AF9174EF5FF59190E65D7410F0D0D0D000D001D002D003D004D005D099
:20036D0006D007D083D082D0F0D0E0D02132C021C0E0C0F0C082C083C007C006C005C0048F
:20038D00C003C002C001C000C0D075D0007582011207B0AF9174EF5FF59190E65D7420F0D5
:2003AD00D0D0D000D001D002D003D004D005D006D007D083D082D0F0D0E0D02132C0E0C05C
:2003CD0082C083C007C0D075D000D201AF9174EF5FF59190E65D7408F0D0D0D007D083D07B
:0403ED0082D0E032A8
:2003F100758201227582012275820122758201227582002290E6007412F090E609743FF05D
:200411000000000090E60274F8F00000000090E60374E0F00000000090E670E0FF4480F0C1
:2004310090E60174E3F090E61274A2F00000000090E613E0FF547FF00000000090E6147436
:20045100E2F00000000090E61574F0F00000000090E6047480F00000000090E6047482F01C
:200471000000000090E6047484F00000000090E6047486F00000000090E6047488F000003F
:20049100000090E604E4F00000000090E618E4F00000000090E6187410F00000000090E623
:2004B1001A7408F00000000090E61B7408F00000000090E6267402F00000000090E627E425
:0704D100F0000000002222F0
:203E000012010002FFFFFF40B40404100100010200010A060002FFFFFF40010009022700FD
:203E2000010100C0320904000003FFFFFF0007050202000200070586020002000705880342
:033E40000002017C
:203E440009023C0001010080320904000006FFFFFF00070501024000000705810240000035
:203E64000705020240000007050402400000070586024000000705880240000004030904DE
:123E84000603490054000A0377006900660069000000CA
:0104D80032F1
:0104D90032F0
:0104DA0032EF
:0104DB0032EE
:0104DC0032ED
:0104DD0032EC
:0104DE0032EB
:0104DF0032EA
:0601EA00E478FFF6D8FDE9
:12021800750900750A00750B44750C3E750D1C750E3EF5
:2004E00090E6B9E0FF24F450030205E0EF2F2F9004F37302051702052C0205E002054102D3
:2005000005E00205E00205560205E002055C02057402058E0205C2120656E5826003020550
:20052000F590E6A0E0FF4401F00205F51206DFE58260030205F590E6A0E0FF4401F00205B2
:20054000F512072DE58260030205F590E6A0E0FF4401F00205F51207DB0205F51203F9AFC7
:200560008290E740EFF090E68AE4F090E68B7401F00205F590E6BAE0F5821203FDE58260CD
:20058000030205F590E6A0E0FF4401F0806790E6BCE0FF750F087510007511408F8212033D
:2005A000F1E582700A90E6A0E0FF4401F0804690E740E508F090E68AE4F090E68B7401F0AB
:2005C000803390E6BCE0FF90E6BAE0F50F8F821203F5E582701F90E6A0E0FF4401F0801573
:2005E00090E6B9E0F582120401E582700890E6A0E0FF4401F090E6A0E04480F022AF828FC9
:200600000653067FEE24F74049EE2E2E9006107302062B02062F02064202065202064602A9
:20062000065202064A02065202064E90E6A022EF30E7067EA27FE680047EA17FE68E828FF0
:20064000832290E6A32290E6A42290E6A52290E6A6229000002290E6B8E0FFBF8002801F64
:20066000BF81028005BF826F803490E740E4F090E741F090E68AF090E68B7402F0805CE504
:200680000A25E0FFE509420790E740EFF090E741E4F090E68AF090E68B7402F0803D90E669
:2006A000BCE0F5821205FDAE82AF83EE4F7003F582228E828F83E0FE30E0047F0180027FD3
:2006C0000090E740EFF090E741E4F090E68AF090E68B7402F080047582002275820122905A
:2006E000E6B8E0FF6005BF0237801190E6BAE0FFBF0105750A0080317582002290E6BAE062
:20070000701A90E6BCE0F5821205FDAE82AF83E0FD5305FE8E828F83EDF0800D7582002278
:2007200090E6B9E0F5820204017582012290E6B8E0FF6005BF026C801B90E6BAE0FFBF0208
:2007400002806990E6BAE0FFBF0105750A01805C7582002290E6BAE0704590E6BCE0F58217
:200760001205FDAE82AF83EE4F7003F582228E828F83E0FD4305018E828F83EDF090E6BC41
:20078000E0FF53070F90E6BCE05480C423541FFE90E6832FF090E683E0FF4420F0800D758D
:2007A00082002290E6B9E0F58202040175820122AF82D20210AF02C202EF600E750B1C75F6
:2007C0000C3E750D44750E3E800C750B44750C3E750D1C750E3EA20292AF2290E6BBE0FFC3
:2007E000BF01028019BF02028029BF03028033BF0603020894BF07030208A90208B87E0099
:200800007F3E8F0690E6B3EEF07E007F3E90E6B4EEF022AF0C90E6B3EFF0AE0B90E6B4EE86
:20082000F0227E807D3E7F8090E6BAE0F50F7B008B020BEAB50F0280428E008D018F028E1A
:20084000828D838FF012093328F8E439F9880689058A0774012EF9E43DFA8F0489828A83F4
:200860008CF0120933F9B9030280067E007D007F00EE4D6006C3E50F9B50B5EE4D600D8DCA
:200880000790E6B3EFF090E6B4EEF02290E6A0E04401F0227E127F3E8F0690E6B3EEF07E6B
:2008A000127F3E90E6B4EEF022AF0E90E6B3EFF0AE0D90E6B4EEF02290E6A0E04401F02248
:2001C8007900E94400601B7A00900954780075923CE493F2A308B800020592D9F4DAF27561
:0201E80092FF84
:0108C0003205
:0108C1003204
:0108C2003203
:0108C3003202
:0108C4003201
:0108C5003200
:0108C60032FF
:03004300023F0079
:203F0000020305000208C2000204DB000203CA0002032C0002037B000204D8000208D000B2
:203F20000208D1000208D2000208D3000208D6000208C1000208C3000208C4000208C600D7
:203F40000204DD000208D00002094F000204D9000204DA000204DC000204DE000204DF00E0
:203F6000020932000208D0000208D0000208D0000208CF000208D4000208D7000208D900FB
:203F80000208D5000208D8000208DA00020931000208C7000208C9000208CB000208CD00F0
:183FA0000208C8000208CA000208CC000208CE000208C5000208C0001C
:0108C70032FE
:0108C80032FD
:2001F0007800E84400600A790075923CE4F309D8FC7800E84400600C7900903C00E4F0A3A5
:04021000D8FCD9FA43
:0108C90032FC
:0108CA0032FB
:0108CB0032FA
:0108CC0032F9
:0108CD0032F8
:0108CE0032F7
:0108CF0032F6
:0108D00032F5
:0108D10032F4
:0108D20032F3
:0108D30032F2
:0108D40032F1
:0108D50032F0
:0108D60032EF
:0108D70032EE
:0108D80032ED
:0108D90032EC
:0108DA0032EB
:2008DB00AE82AF8390E600E05418C423541FFDB40100E433FD60067CB17D00801C90E60097
:2008FB00E05418C423541FFBBB01067A617B0180047AC27B028A048B058C0F8D10150F74F8
:16091B00FFB50F021510E50F451070F11EBEFF011FEE4F70E42284
:010931003293
:010932003292
:0D01BB00758121120950E58260030201B632
:1C09330020F71430F6148883A88220F507E6A88375830022E280F7E49322E022D3
:01094F003275
:04095000758200228A
:00000001FF
